:100000000C942A000C9447000C9447000C94470071
:100010000C9447000C9447000C9484100C942A1004
:100020000C9457100C94FD0F0C9447000C9447004F
:100030000C9447000C9447000C9447000C94470024
:100040000C9447000C9447000C9447000C94470014
:100050000C94470011241FBECFE5D8E0DEBFCDBF12
:1000600011E0A0E6B0E0E2EAF6E202C005900D92EF
:10007000A038B107D9F711E0A0E8B1E001C01D92A6
:10008000A63AB107E1F70E94FC060C944F130C94BA
:100090000000EF92FF920F931F937B018C0120E0F1
:1000A00030E040E05FE40E94F50388238CF0C80153
:1000B000B70120E030E040E05FE40E94C1010E940F
:1000C000B3049B01AC01205030404040504806C072
:1000D000C801B7010E94B3049B01AC01B901CA0178
:1000E0001F910F91FF90EF900895A0E0B0E0EBE733
:1000F000F0E00C941813DC012B01FA019C91923072
:1001000008F439C1EB018881823008F433C194309E
:1001100069F4843009F02FC111969C91119789815F
:10012000981709F428C1A0E6B0E025C1843009F48D
:1001300021C18230A9F4923009F01DC19A01AD01AC
:1001400088E0EA010990AE01E90109929E0181501F
:10015000C1F7E201898111969C918923818308C1AD
:10016000923009F407C112962D903C901397EB0141
:100170008A819B811496AD90BD90CD90DC901797AD
:10018000EC80FD800E811F819101281B390BB90184
:1001900037FF04C066277727621B730B6032710537
:1001A0000CF061C0121613066CF537014801062EDB
:1001B00004C096948794779467940A94D2F721E0C8
:1001C00030E040E050E004C0220F331F441F551FB1
:1001D0006A95D2F721503040404050402E213F21B7
:1001E00040235123211531054105510521F021E01E
:1001F00030E040E050E079018A01E628F72808293C
:1002000019293CC0232BD1F1260E371E350146019A
:10021000062E04C096948794779467940A94D2F734
:1002200021E030E040E050E004C0220F331F441FC3
:10023000551F6A95D2F721503040404050402A2146
:100240003B214C215D21211531054105510521F04E
:1002500021E030E040E050E059016A01A628B728CB
:10026000C828D9280BC0821593052CF01C01AA249C
:10027000BB24650103C0EE24FF24870111969C91E5
:10028000D20111968C91981709F445C0992339F041
:10029000A80197012A193B094C095D0906C0A6016E
:1002A00095012E193F09400B510B57FD08C01182D3
:1002B0003382228224833583468357831DC081E0A5
:1002C00081833382228288279927DC01821B930B4A
:1002D000A40BB50B84839583A683B7830DC0220F2F
:1002E000331F441F551F24833583468357838281E0
:1002F000938101979383828324813581468157813D
:10030000DA01C9010197A109B1098F5F9F4FAF4F72
:10031000BF4328F30BC0918333822282EA0CFB1C7B
:100320000C1D1D1DE482F5820683178383E0808304
:10033000248135814681578157FF1AC0C901AA27F8
:1003400097FDA095BA2F81709070A070B0705695EF
:10035000479537952795822B932BA42BB52B848318
:100360009583A683B7838281938101969383828349
:10037000DF0101C0D201CD01CDB7DEB7E2E10C94BF
:100380003413A0E2B0E0E7ECF1E00C9424136983AD
:100390007A838B839C832D833E834F835887E9E048
:1003A000EE2EF12CEC0EFD1ECE010196B7010E943F
:1003B0002B068E010F5E1F4FCE010596B8010E94DD
:1003C0002B068A8991E089278A8BC701B801AE0183
:1003D000475E5F4F0E9475000E945605A096E6E0BA
:1003E0000C944013A0E2B0E0E8EFF1E00C94241389
:1003F00069837A838B839C832D833E834F835887C5
:10040000F9E0EF2EF12CEC0EFD1ECE010196B701A6
:100410000E942B068E010F5E1F4FCE010596B8017C
:100420000E942B06C701B801AE01475E5F4F0E94D4
:1004300075000E945605A096E6E00C944013A0E2D9
:10044000B0E0E5E2F2E00C94181369837A838B83C1
:100450009C832D833E834F835887CE010196BE0136
:10046000675F7F4F0E942B06CE010596BE016F5E2F
:100470007F4F0E942B069985923088F089898230BF
:10048000C8F0943019F4823051F404C0843029F457
:10049000923081F480E690E0C6C0923049F420E0CA
:1004A0009A858A89981321E02A87CE010996BBC0D4
:1004B000823049F420E09A858A89981321E02A8BBA
:1004C000CE014196B0C02D843E844F8458886D88FB
:1004D0007E888F88988CEE24FF248701AA24BB2471
:1004E000650140E050E060E070E0E0E0F0E0C10174
:1004F00081709070892BE9F0E60CF71C081D191D1E
:100500009A01AB012A0D3B1D4C1D5D1D80E090E062
:10051000A0E0B0E0E614F7040805190520F481E036
:1005200090E0A0E0B0E0BA01A901480F591F6A1F8E
:100530007B1FAA0CBB1CCC1CDD1C97FE08C081E0F5
:1005400090E0A0E0B0E0A82AB92ACA2ADB2A3196B6
:10055000E032F10549F0660C771C881C991C569412
:10056000479437942794C3CFFA85EA892B893C892D
:100570008B859C85280F391F2E5F3F4F17C0CA01FE
:1005800081709070892B61F016950795F794E79428
:1005900080E090E0A0E0B0E8E82AF92A0A2B1B2BC3
:1005A00076956795579547952F5F3F4F77FDE7CF36
:1005B0000CC0440F551F661F771F17FD4160EE0CDE
:1005C000FF1C001F111F21503040403090E05907A0
:1005D00090E0690790E4790760F32B8F3C8FDB0193
:1005E000CA018F779070A070B07080349105A1051A
:1005F000B10561F447FD0AC0E114F10401051105DC
:1006000029F0405C5F4F6F4F7F4F40781A8EFE1786
:1006100011F081E08A8F4D8F5E8F6F8F78A383E01A
:10062000898FCE0149960E945605A096E2E10C946E
:100630003413A8E1B0E0EFE1F3E00C9420136983F8
:100640007A838B839C832D833E834F835887B9E0C5
:10065000EB2EF12CEC0EFD1ECE010196B7010E948F
:100660002B068E010F5E1F4FCE010596B8010E942A
:100670002B062985223008F47EC03989323010F4E7
:10068000B8017CC08A859A8989278A87243011F02D
:10069000223031F4231709F06EC060E670E06EC0BE
:1006A000343039F41D861E861F86188A1C861B86E8
:1006B00004C0323021F484E08987B7015FC02B8504
:1006C0003C858B899C89281B390B3C872B87ED84C3
:1006D000FE840F851889AD88BE88CF88D88CEA142F
:1006E000FB040C051D0540F4EE0CFF1C001F111F40
:1006F000215030403C872B8720E030E040E050E044
:1007000080E090E0A0E0B0E460E070E0EA14FB0478
:100710000C051D0540F0282B392B4A2B5B2BEA18C2
:10072000FB080C091D09B695A79597958795EE0CC2
:10073000FF1C001F111F6F5F7F4F6F31710531F775
:10074000DA01C9018F779070A070B0708034910584
:10075000A105B10561F427FD0AC0E114F10401050A
:10076000110529F0205C3F4F4F4F5F4F20782D87B8
:100770003E874F87588BBE01675F7F4FCB010E943A
:1007800056056896EAE00C943C13A8E1B0E0EBEC67
:10079000F3E00C94241369837A838B839C832D83E9
:1007A0003E834F83588789E0E82EF12CEC0EFD1E26
:1007B000CE010196B7010E942B068E010F5E1F4FDE
:1007C000CE010596B8010E942B068985823040F043
:1007D0008989823028F0C701B8010E94A30601C0B0
:1007E0008FEF6896E6E00C944013A8E1B0E0EBEFE1
:1007F000F3E00C94241369837A838B839C832D8389
:100800003E834F83588789E0E82EF12CEC0EFD1EC5
:10081000CE010196B7010E942B068E010F5E1F4F7D
:10082000CE010596B8010E942B068985823040F0E2
:100830008989823028F0C701B8010E94A30601C04F
:100840008FEF6896E6E00C944013A8E1B0E0EBE28D
:10085000F4E00C94241369837A838B839C832D8327
:100860003E834F83588789E0E82EF12CEC0EFD1E65
:10087000CE010196B7010E942B068E010F5E1F4F1D
:10088000CE010596B8010E942B068985823040F082
:100890008989823028F0C701B8010E94A30601C0EF
:1008A00081E06896E6E00C944013A8E0B0E0EBE548
:1008B000F4E00C9421139B01AC0183E08983DA01FD
:1008C000C9018827B7FD83959927AA27BB27B82E8A
:1008D000211531054105510519F482E089833AC09B
:1008E0008823A9F0203080E0380780E0480780E8BE
:1008F000580729F460E070E080E09FEC30C0EE24FF
:10090000FF248701E21AF30A040B150B02C07901D8
:100910008A018EE1C82ED12CDC82CB82ED82FE8250
:100920000F831887C801B7010E94070501971816A1
:10093000190684F4082E04C0EE0CFF1C001F111FC2
:100940000A94D2F7ED82FE820F831887C81AD90A5B
:10095000DC82CB82BA82CE0101960E94560528968F
:10096000E9E00C943D13ACE0B0E0E9EBF4E00C946A
:10097000281369837A838B839C83CE010196BE0101
:100980006B5F7F4F0E942B068D81823061F1823038
:1009900050F1843021F48E81882351F12EC02F81B3
:1009A000388537FD20C06E812F3131051CF066235C
:1009B000F9F023C08EE190E0821B930B29853A85E4
:1009C0004B855C8504C056954795379527958A9544
:1009D000D2F76623B1F050954095309521953F4F61
:1009E0004F4F5F4F0EC020E030E040E050E009C0C4
:1009F0002FEF3FEF4FEF5FE704C020E030E040E033
:100A000050E8B901CA012C96E2E00C944413EF922D
:100A1000FF920F931F937B018C0180E0E81680E02A
:100A2000F80681E0080780E0180788F48FEFE816E1
:100A3000F1040105110531F028F088E090E0A0E014
:100A4000B0E017C080E090E0A0E0B0E012C080E02D
:100A5000E81680E0F80680E0080781E0180728F033
:100A600088E190E0A0E0B0E004C080E190E0A0E088
:100A7000B0E020E230E040E050E0281B390B4A0BA8
:100A80005B0B04C016950795F794E7948A95D2F707
:100A9000F701E859FF4F8081281B310941095109AD
:100AA000C9011F910F91FF90EF900895DF92EF928F
:100AB000FF920F931F93FC01E480F580068117815C
:100AC000D1808081823048F480E090E0A0E1B0E005
:100AD000E82AF92A0A2B1B2BA5C0843009F49FC0F1
:100AE000823021F4EE24FF24870105C0E114F104D3
:100AF0000105110519F4E0E0F0E096C06281738110
:100B00009FEF623879070CF05BC022E83FEF261BAD
:100B1000370B2A3131052CF020E030E040E050E086
:100B20002AC0B801A701022E04C076956795579593
:100B300047950A94D2F781E090E0A0E0B0E004C0CD
:100B4000880F991FAA1FBB1F2A95D2F70197A109E9
:100B5000B1098E219F21A023B1230097A105B105E2
:100B600021F081E090E0A0E0B0E09A01AB01282BF9
:100B7000392B4A2B5B2BDA01C9018F779070A0705B
:100B8000B07080349105A105B10539F427FF09C083
:100B9000205C3F4F4F4F5F4F04C0215C3F4F4F4F92
:100BA0005F4FE0E0F0E02030A0E03A07A0E04A0725
:100BB000A0E45A0710F0E1E0F0E079018A0127C0D3
:100BC0006038710564F5FB01E158FF4FD801C7019A
:100BD0008F779070A070B07080349105A105B10539
:100BE00039F4E7FE0DC080E490E0A0E0B0E004C07E
:100BF0008FE390E0A0E0B0E0E80EF91E0A1F1B1F93
:100C000017FF05C016950795F794E794319687E08E
:100C100016950795F794E7948A95D1F705C0EE24C9
:100C2000FF248701EFEFF0E06E2F67956627679549
:100C3000902F9F77D794DD24D7948E2F8695492FB8
:100C4000462B582F5D29B701CA011F910F91FF90C4
:100C5000EF90DF900895FC01DB01408151812281FA
:100C6000622F6F7770E0221F2227221F9381892F26
:100C7000880F822B282F30E0991F9927991F1196F2
:100C80009C93119721153105A9F541155105610571
:100C9000710511F482E037C082E89FEF13969C93B0
:100CA0008E9312979A01AB0167E0220F331F441F06
:100CB000551F6A95D1F783E08C930DC0220F331F27
:100CC000441F551F12968D919C911397019713966F
:100CD0009C938E931297203080E0380780E048077D
:100CE00080E4580758F314962D933D934D935C93ED
:100CF000179708952F3F310579F441155105610586
:100D0000710519F484E08C93089564FF03C081E0B9
:100D10008C9312C01C9210C02F57304013963C93F6
:100D20002E93129783E08C9387E0440F551F661F24
:100D3000771F8A95D1F7706414964D935D936D93E8
:100D40007C93179708951F93DC01FB019C919230CF
:100D500008F447C08081823008F443C0943051F4D5
:100D600011961C91843099F58181682F70E0611B88
:100D700071093FC0843021F0923031F48230B9F1F2
:100D80008181882389F12DC011961C9111978230A1
:100D9000F1F081811817D9F412962D913C91139797
:100DA000828193818217930794F028173907BCF04A
:100DB00014968D919D910D90BC91A02D248135812B
:100DC00046815781281739074A075B0718F4112312
:100DD00041F00AC082179307A407B50740F4112316
:100DE00019F061E070E005C06FEF7FEF02C060E0D6
:100DF00070E0CB011F910895DF93CF93CDB7DEB79D
:100E00000E9405070E946B07FDCFDF93CF93CDB7FC
:100E1000DEB766970FB6F894DEBF0FBECDBFCE012A
:100E200001969E878D87EDE6F1E0F88BEF87F7E07E
:100E3000F98BEF85F88900808F8598890196988BCA
:100E40008F87ED85FE8500828D859E8501969E8724
:100E50008D8799899150998BE989EE2351F7CE01BD
:100E600008969B8B8A8BE8E6F1E0FD8BEC8BF5E036
:100E7000FE8BEC89FD8900808C899D8901969D8B74
:100E80008C8BEA89FB8900828A899B8901969B8BDE
:100E90008A8B9E8991509E8BEE89EE2351F7AFE5A8
:100EA000B0E0EFE5F0E0808180688C93CE01089699
:100EB0000E9420110E94420ECE0101960E94E21172
:100EC0000E943A0A66960FB6F894DEBF0FBECDBFF9
:100ED000CF91DF910895DF93CF9300D00F92CDB7DC
:100EE000DEB70E94621289838981282F30E03B831C
:100EF0002A838A819B8181339105C9F02A813B81B4
:100F00002233310534F48A819B818033910561F06D
:100F100016C02A813B812233310561F08A819B8191
:100F20008333910551F00BC00E94A50708C00E94B1
:100F3000650805C00E941D0A02C00E94060A0F90A3
:100F40000F900F90CF91DF910895DF93CF93CDB79E
:100F5000DEB769970FB6F894DEBF0FBECDBF188A13
:100F6000198A1A8A1B8A86E0FE017496DF01982F7F
:100F70001D929A95E9F7109288011F86CE0140963E
:100F80000E94A1128DC08F85882F90E08F5E9C4FAC
:100F9000AC018F85282F30E0CE014096FC01E20F96
:100FA000F31F2081CA01622F0E94630A80E090E053
:100FB000A0E2B1E48B879C87AD87BE876B857C857B
:100FC0008D859E8520E030E04AEF54E40E941F02A8
:100FD000DC01CB018F839887A987BA876F817885D9
:100FE00089859A8520E030E040E85FE30E9425048F
:100FF00088232CF481E090E09E838D833FC06F8135
:10100000788589859A8520E03FEF4FE757E40E9475
:10101000C50318164CF56B857C858D859E8520E073
:1010200030E040E251E40E941F02DC01CB01BC0130
:10103000CD010E944900DC01CB019E838D830FC04E
:1010400088EC90E09C838B838B819C810197F1F7E6
:101050009C838B838D819E8101979E838D838D815F
:101060009E81009769F714C06F81788589859A857C
:101070000E944900DC01CB019E838D838D819E817E
:101080009A83898389819A810197F1F79A83898369
:10109000809188018F5F809388018F858F5F8F8714
:1010A0008F85282F30E0CE014096FC01E20FF31F20
:1010B0008081882309F067CF69960FB6F894DEBF68
:1010C0000FBECDBFCF91DF910895DF93CF93CDB702
:1010D000DEB7A4970FB6F894DEBF0FBECDBF198A56
:1010E0001A8A1B8A1C8A86E0FE017596DF01982FFA
:1010F0001D929A95E9F71B8E1C8E1D8E1E8E86E022
:10110000FE017F96DF01982F1D929A95E9F7CE0197
:1011100041960E94A112188A87C08889882F90E082
:101120008F5E9C4FAC018889882F90E09E01255EE0
:101130003F4F280F391FCA01B9010E94A40A80E05D
:1011400090E0A0E2B1E48B879C87AD87BE876B857A
:101150007C858D859E8520E030E04AEF54E40E9436
:101160001F02DC01CB018F839887A987BA876F8123
:10117000788589859A8520E030E040E85FE30E9429
:10118000250488232CF481E090E09E838D833FC06A
:101190006F81788589859A8520E03FEF4FE757E496
:1011A0000E94C50318164CF56B857C858D859E8540
:1011B00020E030E040E251E40E941F02DC01CB015C
:1011C000BC01CD010E944900DC01CB019E838D83CF
:1011D0000FC088EC90E09C838B838B819C8101976E
:1011E000F1F79C838B838D819E8101979E838D83F4
:1011F0008D819E81009769F714C06F8178858985FC
:101200009A850E944900DC01CB019E838D838D81EC
:101210009E819A83898389819A810197F1F79A83C4
:10122000898388898F5F888B909188018889891745
:1012300008F473CF40918801CE0141969E01255E4E
:101240003F4FB9010E9438098F878F85813021F483
:1012500081E30E944B1203C080E30E944B12A496CC
:101260000FB6F894DEBF0FBECDBFCF91DF910895CA
:10127000DF93CF93CDB7DEB727970FB6F894DEBFD5
:101280000FBECDBF9C838B837E836D834F8381E0B4
:1012900089831A8219C08A81282F30E08B819C8132
:1012A000FC01E20FF31F40818A81282F30E08D81FD
:1012B0009E81FC01E20FF31F8081481711F0198213
:1012C00007C08A818F5F8A839A818F81981718F36C
:1012D000898127960FB6F894DEBF0FBECDBFCF91A0
:1012E000DF910895DF93CF93CDB7DEB72B970FB67D
:1012F000F894DEBF0FBECDBFCE01019698878F83D5
:10130000E4E7F1E0FA87E987F6E0FB87E985FA850B
:10131000008089859A8501969A878987EF81F8856B
:1013200000828F819885019698878F839B85915045
:101330009B87EB85EE2351F7CE0101960E94B110F9
:101340008AEF99E061E00E94051180918901823065
:10135000E0F3109289010E94FB102B960FB6F894CF
:10136000DEBF0FBECDBFCF91DF910895DF93CF9346
:10137000CDB7DEB72B970FB6F894DEBF0FBECDBF4B
:10138000CE01019698878F83EAE7F1E0FA87E98733
:10139000F6E0FB87E985FA85008089859A850196C4
:1013A0009A878987EF81F88500828F8198850196D9
:1013B00098878F839B8591509B87EB85EE2351F710
:1013C000CE0101960E94B1108AEF99E061E00E947F
:1013D0000511809189018823E1F3109289010E940F
:1013E000FB102B960FB6F894DEBF0FBECDBFCF918A
:1013F000DF910895DF93CF93CDB7DEB78091890158
:101400008F5F80938901CF91DF910895DF93CF9310
:101410000F92CDB7DEB70E944B0A198205C00E9419
:10142000720989818F5F898389818430C0F30E942A
:10143000570A0F90CF91DF910895DF93CF93CDB7E7
:10144000DEB782E064E60E94620E0E94720980E0CC
:1014500064E60E94620E0E94B60981E064E60E9482
:10146000620E0E94720980E064E60E94620ECF91D3
:10147000DF910895DF93CF93CDB7DEB782E065E0CB
:1014800041E00E94040B82E065E040E00E94330CE2
:10149000CF91DF910895DF93CF93CDB7DEB782E090
:1014A00065E041E00E94330CCF91DF910895DF9316
:1014B000CF93CDB7DEB782E065E040E00E94330C09
:1014C000CF91DF910895DF93CF9300D000D0CDB7B7
:1014D000DEB79A8389836B830E947B110E94D311AC
:1014E000883011F01C8228C089819A8180709770A1
:1014F000880F892F881F990B9195806A0E949611F9
:101500000E94D311883111F01C8216C089810E947B
:1015100096110E94D311883211F01C820DC08B816C
:101520000E9496110E94D311883211F01C8204C0CF
:101530000E948B1181E08C838C810F900F900F9013
:101540000F90CF91DF910895DF93CF9300D000D01B
:101550000F92CDB7DEB79A8389837C836B830E9419
:101560007B110E94D311883011F01D8244C0898103
:101570009A8180709770880F892F881F990B919599
:10158000806A0E9496110E94D311883111F01D8249
:1015900032C089810E9496110E94D311883211F0C5
:1015A0001D8229C00E947B110E94D311803111F04D
:1015B0001D8221C089819A8180709770880F892F40
:1015C000881F990B9195816A0E9496110E94D311F0
:1015D000803411F01D820FC00E94C011EB81FC818C
:1015E00080830E94D311883511F01D8204C00E94AF
:1015F0008B1181E08D838D810F900F900F900F9054
:101600000F90CF91DF910895DF93CF9300D000D05A
:101610000F92CDB7DEB789836A834B83898184308B
:1016200008F0D5C08A81883008F0D1C08981282F80
:1016300030E03D832C838C819D818130910509F4BC
:1016400043C02C813D81223031052CF48C819D8159
:10165000009771F0BCC02C813D812230310509F426
:101660005FC08C819D818330910509F485C0AFC036
:101670008B818130A1F4AAE3B0E0EAE3F0E080815D
:10168000482F8A81282F30E081E090E0022E02C0AE
:10169000880F991F0A94E2F7842B8C9398C0AAE3D1
:1016A000B0E0EAE3F0E08081482F8A81282F30E023
:1016B00081E090E0022E02C0880F991F0A94E2F7A1
:1016C000809584238C9383C08B818130A1F4A7E320
:1016D000B0E0E7E3F0E08081482F8A81282F30E0F6
:1016E00081E090E0022E02C0880F991F0A94E2F771
:1016F000842B8C936CC0A7E3B0E0E7E3F0E080813B
:10170000482F8A81282F30E081E090E0022E02C02D
:10171000880F991F0A94E2F7809584238C9357C011
:101720008B818130A1F4A4E3B0E0E4E3F0E08081B8
:10173000482F8A81282F30E081E090E0022E02C0FD
:10174000880F991F0A94E2F7842B8C9340C0A4E37E
:10175000B0E0E4E3F0E08081482F8A81282F30E078
:1017600081E090E0022E02C0880F991F0A94E2F7F0
:10177000809584238C932BC08B818130A1F4A1E3CD
:10178000B0E0E1E3F0E08081482F8A81282F30E04B
:1017900081E090E0022E02C0880F991F0A94E2F7C0
:1017A000842B8C9314C0A1E3B0E0E1E3F0E08081EE
:1017B000482F8A81282F30E081E090E0022E02C07D
:1017C000880F991F0A94E2F7809584238C930F90D9
:1017D0000F900F900F900F90CF91DF910895DF93AE
:1017E000CF9300D000D0CDB7DEB789836A838981DB
:1017F000843090F58981282F30E03C832B838B81C6
:101800009C8181309105D1F02B813C8122303105C2
:101810002CF48B819C81009761F01EC02B813C8150
:101820002230310581F08B819C818330910581F0DC
:1018300013C0EAE3F0E08A8180830EC0E7E3F0E0C2
:101840008A81808309C0EAE3F0E08A81808304C052
:10185000E1E3F0E08A8180830F900F900F900F906A
:10186000CF91DF910895DF93CF9300D000D00F92F6
:10187000CDB7DEB789836A834B838981843008F0D2
:10188000D5C08A81883008F0D1C08981282F30E006
:101890003D832C838C819D818130910509F443C067
:1018A0002C813D81223031052CF48C819D81009763
:1018B00071F0BCC02C813D812230310509F45FC03C
:1018C0008C819D818330910509F485C0AFC08B81E7
:1018D0008130A1F4ABE3B0E0EBE3F0E08081482F8E
:1018E0008A81282F30E081E090E0022E02C0880F2C
:1018F000991F0A94E2F7842B8C9398C0ABE3B0E075
:10190000EBE3F0E08081482F8A81282F30E081E0EE
:1019100090E0022E02C0880F991F0A94E2F780958A
:1019200084238C9383C08B818130A1F4A8E3B0E041
:10193000E8E3F0E08081482F8A81282F30E081E0C1
:1019400090E0022E02C0880F991F0A94E2F7842BC0
:101950008C936CC0A8E3B0E0E8E3F0E08081482F0E
:101960008A81282F30E081E090E0022E02C0880FAB
:10197000991F0A94E2F7809584238C9357C08B813A
:101980008130A1F4A5E3B0E0E5E3F0E08081482FE9
:101990008A81282F30E081E090E0022E02C0880F7B
:1019A000991F0A94E2F7842B8C9340C0A5E3B0E022
:1019B000E5E3F0E08081482F8A81282F30E081E044
:1019C00090E0022E02C0880F991F0A94E2F78095DA
:1019D00084238C932BC08B818130A1F4A2E3B0E0EF
:1019E000E2E3F0E08081482F8A81282F30E081E017
:1019F00090E0022E02C0880F991F0A94E2F7842B10
:101A00008C9314C0A2E3B0E0E2E3F0E08081482FC1
:101A10008A81282F30E081E090E0022E02C0880FFA
:101A2000991F0A94E2F7809584238C930F900F906E
:101A30000F900F900F90CF91DF910895DF93CF9388
:101A400000D000D0CDB7DEB789836A838981843026
:101A500090F58981282F30E03C832B838B819C81FA
:101A600081309105D1F02B813C81223031052CF45D
:101A70008B819C81009761F01EC02B813C812230BC
:101A8000310581F08B819C818330910581F013C0F9
:101A9000EBE3F0E08A8180830EC0E8E3F0E08A8126
:101AA000808309C0E5E3F0E08A81808304C0E2E33B
:101AB000F0E08A8180830F900F900F900F90CF916C
:101AC000DF910895DF93CF9300D000D00F92CDB770
:101AD000DEB78A836B8319828A81843008F084C0E0
:101AE0008B81883008F080C08A81282F30E03D83C8
:101AF0002C834C815D814130510579F18C819D8130
:101B00008230910534F42C813D812115310569F035
:101B10006BC04C815D8142305105B9F18C819D8152
:101B20008330910509F449C05FC0E9E3F0E08081AA
:101B3000282F30E08B81882F90E0A90102C05595B5
:101B400047958A95E2F7CA0181709070882319F051
:101B500081E0898349C0198247C0E6E3F0E08081D3
:101B6000282F30E08B81882F90E0A90102C0559585
:101B700047958A95E2F7CA0181709070882319F021
:101B800081E0898331C019822FC0E3E3F0E08081D6
:101B9000282F30E08B81882F90E0A90102C0559555
:101BA00047958A95E2F7CA0181709070882319F0F1
:101BB00081E0898319C0198217C0E0E3F0E08081D9
:101BC000282F30E08B81882F90E0A90102C0559525
:101BD00047958A95E2F7CA0181709070882319F0C1
:101BE00081E0898301C0198289810F900F900F9045
:101BF0000F900F90CF91DF910895DF93CF9300D096
:101C000000D0CDB7DEB78A8319828A81843090F5FF
:101C10008A81282F30E03C832B838B819C8181300B
:101C20009105D1F02B813C81223031052CF48B8140
:101C30009C81009761F01EC02B813C8122303105D0
:101C400081F08B819C818330910581F013C0E9E3A1
:101C5000F0E0808189830EC0E6E3F0E08081898333
:101C600009C0E3E3F0E08081898304C0E0E3F0E0B1
:101C70008081898389810F900F900F900F90CF9171
:101C8000DF910895DF93CF93CDB7DEB781E060E0B9
:101C900041E00E94040B81E061E041E00E94040BFE
:101CA00081E063E041E00E94040B81E060E040E0FD
:101CB0000E94330C81E061E040E00E94330CCF9140
:101CC000DF910895DF93CF9300D000D0CDB7DEB77A
:101CD00089836A838981282F30E03C832B838B8121
:101CE0009C8181309105F9F02B813C8122303105B6
:101CF00079F08B819C81009701F581E060E040E004
:101D00000E94330C81E061E040E00E94330C15C07A
:101D100081E060E041E00E94330C81E061E040E05E
:101D20000E94330C0AC081E060E040E00E94330C66
:101D300081E061E041E00E94330C8A81882F90E0CD
:101D4000AA2797FDA095BA2FBC01CD010E9455048A
:101D5000DC01CB01BC01CD0120E030E048EC52E4D5
:101D60000E941903DC01CB01BC01CD0120E030E071
:101D70004FE753E40E941F02DC01CB01BC01CD01FF
:101D80000E944900DC01CB018A838A8162E042E043
:101D900020E00E947D0F0F900F900F900F90CF9139
:101DA000DF910895DF93CF9300D0CDB7DEB789835D
:101DB0006A83E2E5F0E01082A3E5B0E0E3E5F0E05D
:101DC000808188608C93A3E5B0E0E3E5F0E080815A
:101DD000877B8C93A3E5B0E0E3E5F0E08081982F6A
:101DE000987F8981892B8C938A81882341F4A9E586
:101DF000B0E0E9E5F0E080818E7F8C9311C08A81AC
:101E0000813071F4A9E5B0E0E9E5F0E0808181601E
:101E10008C93AFE5B0E0EFE5F0E0808180688C93D3
:101E20000F900F90CF91DF910895DF93CF9300D063
:101E300000D00F92CDB7DEB79A8389836B834C8332
:101E40002D83A7E3B0E0E7E3F0E0808188608C9326
:101E5000E2E5F0E01082ECE5F0E089818083A3E523
:101E6000B0E0E3E5F0E0808180688C93A3E5B0E02A
:101E7000E3E5F0E0808188608C93A3E5B0E0E3E5E2
:101E8000F0E08081982F987F8C81892B8C93A3E53B
:101E9000B0E0E3E5F0E08081282F2F7C8B81882F54
:101EA00090E082959295907F9827807F9827822B4B
:101EB0008C938D81882341F4A9E5B0E0E9E5F0E059
:101EC00080818D7F8C9311C08D81813071F4A9E563
:101ED000B0E0E9E5F0E0808182608C93AFE5B0E0AE
:101EE000EFE5F0E0808180688C930F900F900F9069
:101EF0000F900F90CF91DF910895DF93CF9300D093
:101F000000D0CDB7DEB789836A834B832C83A7E3E8
:101F1000B0E0E7E3F0E0808188608C93E2E5F0E0F8
:101F20001082ECE5F0E089818083A3E5B0E0E3E591
:101F3000F0E080818F778C93A3E5B0E0E3E5F0E0FB
:101F4000808188648C93A3E5B0E0E3E5F0E08081D4
:101F5000982F987F8B81892B8C93A3E5B0E0E3E5E4
:101F6000F0E08081282F2F7C8A81882F90E0829555
:101F70009295907F9827807F9827822B8C938C81D5
:101F8000882341F4A9E5B0E0E9E5F0E080818D7FA8
:101F90008C9311C08C81813071F4A9E5B0E0E9E542
:101FA000F0E0808182608C93AFE5B0E0EFE5F0E097
:101FB000808180688C930F900F900F900F90CF913D
:101FC000DF910895DF93CF9300D00F92CDB7DEB7A6
:101FD0009A8389836B838B81882F90E029813A8152
:101FE000880F991FFC01E257FE4F318320830F9029
:101FF0000F900F90CF91DF9108951F920F920FB61F
:102000000F9211242F933F934F935F936F937F937E
:102010008F939F93AF93BF93EF93FF93DF93CF93F0
:10202000CDB7DEB7E0919501F09196010995CF917A
:10203000DF91FF91EF91BF91AF919F918F917F9130
:102040006F915F914F913F912F910F900FBE0F9025
:102050001F9018951F920F920FB60F9211242F9375
:102060003F934F935F936F937F938F939F93AF9320
:10207000BF93EF93FF93DF93CF93CDB7DEB7E0919C
:102080009701F09198010995CF91DF91FF91EF9120
:10209000BF91AF919F918F917F916F915F914F9180
:1020A0003F912F910F900FBE0F901F9018951F9288
:1020B0000F920FB60F9211242F933F934F935F937C
:1020C0006F937F938F939F93AF93BF93EF93FF9300
:1020D000DF93CF93CDB7DEB7E0919901F0919A01EC
:1020E0000995CF91DF91FF91EF91BF91AF919F91B2
:1020F0008F917F916F915F914F913F912F910F90B1
:102100000FBE0F901F9018951F920F920FB60F924F
:1021100011242F933F934F935F936F937F938F93EC
:102120009F93AF93BF93EF93FF93DF93CF93CDB77D
:10213000DEB7E0919B01F0919C010995CF91DF9171
:10214000FF91EF91BF91AF919F918F917F916F918F
:102150005F914F913F912F910F900FBE0F901F9065
:102160001895DF93CF9300D0CDB7DEB79A838983DC
:10217000ACE4B0E0E981FA818081918111969C9371
:102180008E93AAE4B0E0E981FA818281938111966D
:102190009C938E93EFE4F0E088E08083AEE4B0E0BF
:1021A000E981FA818481282FE981FA818581882F4C
:1021B00090E0880F991F880F991F880F991F822B15
:1021C0008C93A9E5B0E0E9E5F0E0808180618C9333
:1021D000A9E5B0E0E9E5F0E0808184608C93AFE5AB
:1021E000B0E0EFE5F0E0808180688C930F900F9075
:1021F000CF91DF910895DF93CF93CDB7DEB7EEE4B3
:10220000F0E01082CF91DF910895DF93CF9300D05B
:102210000F92CDB7DEB79A8389836B838B81882F2A
:1022200090E029813A81880F991FFC01EB56FE4FFF
:10223000318320830F900F900F90CF91DF910895FD
:10224000EF92FF920F931F93DF93CF9300D00F92E3
:10225000CDB7DEB79B838A83EA81FB8121813281FE
:102260004381548180E291EAA7E0B0E0821B930BA6
:10227000A40BB50B880F991FAA1FBB1F880F991FAE
:10228000AA1FBB1F880F991FAA1FBB1F880F991F6A
:10229000AA1FBB1F7C018D01EA81FB818181928194
:1022A000A381B4819C01AD01220F331F441F551F30
:1022B000C801B7010E94F612DA01C9018983E0E280
:1022C000F0E089818083E1E2F0E01082A2E2B0E0F8
:1022D000EA81FB818081880F8C93E6E5F0E084E061
:1022E00080830F900F900F90CF91DF911F910F91EE
:1022F000FF90EF900895DF93CF93CDB7DEB7E6E57B
:10230000F0E084EA8083E6E5F0E080818823DCF772
:10231000CF91DF910895DF93CF93CDB7DEB7E6E598
:10232000F0E084E98083CF91DF910895DF93CF932C
:102330000F92CDB7DEB78983E3E2F0E08981808335
:10234000E6E5F0E084E88083E6E5F0E0808188233C
:10235000DCF70F90CF91DF910895DF93CF93CDB746
:10236000DEB7E6E5F0E084EC8083E6E5F0E080812E
:102370008823DCF7E3E2F0E08081CF91DF910895DC
:10238000DF93CF93CDB7DEB7E6E5F0E084E8808356
:10239000E6E5F0E080818823DCF7E3E2F0E080818D
:1023A000CF91DF910895DF93CF930F92CDB7DEB732
:1023B000E1E2F0E08081887F898389810F90CF916D
:1023C000DF910895DF93CF9300D000D0CDB7DEB773
:1023D0009C838B831A821982EBE2F0E082E0808397
:1023E000EAE2F0E088E18083A0E4B0E0EB81FC81E8
:1023F0008081882F90E0880F991F282F2068EB811B
:10240000FC818181882F90E082959295907F98271A
:10241000807F9827282BEB81FC818281882F90E098
:10242000880F991F880F991F880F991F822B8C93F3
:10243000EB81FC8183819481A581B681880F991FEE
:10244000AA1FBB1F880F991FAA1FBB1F880F991FA8
:10245000AA1FBB1F9C01AD0180E092E1AAE7B0E09A
:10246000BC01CD010E94F612DA01C90101979A83DD
:102470008983E0E4F0E089819A81892F992780831C
:10248000E9E2F0E0898180830F900F900F900F9028
:10249000CF91DF910895DF93CF930F92CDB7DEB741
:1024A0008983EBE2F0E08081882F90E08072907069
:1024B0000097B9F3ECE2F0E0898180830F90CF912F
:1024C000DF910895DF93CF93CDB7DEB7EBE2F0E075
:1024D00080818823DCF7ECE2F0E08081CF91DF910E
:1024E0000895DF93CF9300D00F92CDB7DEB79B83D3
:1024F0008A83198210C08981282F30E08A819B81CC
:10250000FC01E20FF31F80810E944B128A819B81A4
:1025100001969B838A83EA81FB818081882359F716
:102520008981282F30E08A819B81FC01E20FF31F13
:1025300080810E944B120F900F900F90CF91DF91EE
:1025400008950F931F93DF93CF9300D00F92CDB7D1
:10255000DEB79B838A8319828981282F30E08A81A4
:102560009B818C01020F131F0E946212F80180836D
:102570000FC089818F5F89838981282F30E08A810C
:102580009B818C01020F131F0E946212F80180834D
:102590008981282F30E08A819B81FC01E20FF31FA3
:1025A0008081882331F70F900F900F90CF91DF91AA
:1025B0001F910F910895DF93CF9300D00F92CDB765
:1025C000DEB79A8389836B838B81882F90E0298182
:1025D0003A81880F991FFC01E056FE4F318320831A
:1025E0000F900F900F90CF91DF910895A1E21A2ED6
:1025F000AA1BBB1BFD010DC0AA1FBB1FEE1FFF1FA7
:10260000A217B307E407F50720F0A21BB30BE40BF6
:10261000F50B661F771F881F991F1A9469F760953D
:102620007095809590959B01AC01BD01CF010895F7
:102630002F923F924F925F926F927F928F929F92D2
:10264000AF92BF92CF92DF92EF92FF920F931F93C0
:10265000CF93DF93CDB7DEB7CA1BDB0B0FB6F89471
:10266000DEBF0FBECDBF09942A88398848885F84B1
:102670006E847D848C849B84AA84B984C884DF8022
:10268000EE80FD800C811B81AA81B981CE0FD11D06
:102690000FB6F894DEBF0FBECDBFED010895F894DC
:0226A000FFCF6A
:1026A2000000000000000000000102020303030317
:1026B20004040404040404040505050505050505D0
:1026C20005050505050505050606060606060606B0
:1026D2000606060606060606060606060606060698
:1026E2000606060606060606070707070707070780
:1026F2000707070707070707070707070707070768
:102702000707070707070707070707070707070757
:102712000707070707070707070707070707070747
:10272200070707070707070708080808080808082F
:102732000808080808080808080808080808080817
:102742000808080808080808080808080808080807
:1027520008080808080808080808080808080808F7
:1027620008080808080808080808080808080808E7
:1027720008080808080808080808080808080808D7
:1027820008080808080808080808080808080808C7
:1027920008080808080808080808080808080808B7
:1027A200080808080808080801801A060003000043
:1027B200802500000000E2E4050100008C5B0501B9
:00000001FF
