:100000000C9443000C9460000C9460000C9460000D
:100010000C9460000C9460000C9460000C946000E0
:100020000C9460000C9460000C9434060C94E6056B
:100030000C940D060C94BF050C9460000C946000A9
:100040000C9460000C9460000C9460000C946000B0
:100050000C9460000C9460000C9460000C946000A0
:100060000C9460000C9460001E0404040604080450
:100070000A040C040E0410041204140416043304BD
:1000800018041A041C0411241FBECFEFD8E0DEBFF1
:10009000CDBF12E0A0E0B1E0E2EBFEE002C00590CF
:1000A0000D92A631B107D9F722E0A6E1B2E001C076
:1000B0001D92A232B207E1F70E94EA060C9457079C
:1000C0000C940000809116028F5F809316020895B1
:1000D000EF92FF920F931F93CF93DF93EC018B016D
:1000E0002FEF80E792E0215080409040E1F700C080
:1000F0000000FB011082F80180817E01E80EF11CF6
:100100000E94A903F7018083F80180818F5F8083BB
:10011000FE01E80FF11D319780818D3019F08AE2E0
:100120000E94EF04FFE72AE186E0F1502040804082
:10013000E1F700C00000F8018081FE01E80FF11D29
:10014000319790819D30B9F68150F8018083C80FB6
:10015000D11D1882DF91CF911F910F91FF90EF90E9
:100160000895CF93DF93CDB7DEB72B970FB6F894F2
:10017000DEBF0FBECDBF1A821982FE01339688E022
:10018000DF011D928A95E9F71B860E94B2054AE1BC
:1001900051E060E080E00E94B50560E081E00E94EF
:1001A0008105BE01655F7F4FCE0101960E94680008
:1001B00081E30E94B4068FE19EE40197F1F700C04D
:1001C0000000CE0101960E94BC060E94B8062B9644
:1001D0000FB6F894DEBF0FBECDBFDF91CF9108956B
:1001E000282FDB01FC018E2F821B841730F49191A4
:1001F0008D919817C1F380E0089581E00895CF9321
:10020000DF93CDB7DEB728970FB6F894DEBF0FBEE9
:10021000CDBF88E0E0E0F1E0DE01119601900D92A3
:100220008A95E1F7CE0101960E945B0661E082E6C5
:1002300090E00E948006809116028230E0F31092D6
:1002400016020E947D0628960FB6F894DEBF0FBEF8
:10025000CDBFDF91CF91089583E30E94B4060E9441
:10026000B2054AE251E060E080E00E94B5054AE351
:1002700051E060E081E00E94B5050E94FF000E940D
:10028000FF000E94FF000C94FF00CF93DF93CDB7D7
:10029000DEB728970FB6F894DEBF0FBECDBF88E05B
:1002A000E8E0F1E0DE01119601900D928A95E1F708
:1002B000CE0101960E945B0661E082E690E00E941A
:1002C0008006809116028823E1F3109216020E94A4
:1002D0007D0628960FB6F894DEBF0FBECDBFDF9126
:1002E000CF9108951F93CF93DF93CDB7DEB7669775
:1002F0000FB6F894DEBF0FBECDBF1C861B8688E00C
:10030000FE013D96DF01282F1D922A95E9F71A82FA
:1003100019823A97DF011D928A95E9F71E8A1D8A94
:100320000E94B2054BE451E060E080E00E94B50518
:1003300060E081E00E948105BE016A5E7F4FCE01D0
:100340000B960E9468004CE551E060E080E00E945E
:10035000B5054DE651E060E081E00E94B505BE01C3
:100360006B5E7F4FCE0101960E9468004E898D8999
:100370004817C1F00E94B20549E751E060E080E013
:100380000E94B50542E851E060E081E00E94B505B9
:10039000BFEF29E688E1B15020408040E1F700C07E
:1003A0000000BECFBE016F5F7F4FCE010B960E9453
:1003B000F000182F0E94B2051130A1F44EE851E070
:1003C00060E080E00E94B50547E951E060E081E02F
:1003D0000E94B50580E30E94B406CE010B960E94F0
:1003E000BC060CC049E751E060E080E00E94B50522
:1003F00042E851E060E081E00E94B5050E944501BD
:10040000112309F48DCF66960FB6F894DEBF0FBEA8
:10041000CDBFDF91CF911F910895CF93DF93CDB7DB
:10042000DEB72A970FB6F894DEBF0FBECDBF8AE0C5
:10043000E0E1F1E0DE01119601900D928A95E1F77D
:100440008FB780688FBF0E94B604CE0101960E94CC
:1004500089060E9472012A960FB6F894DEBF0FBE7D
:10046000CDBFDF91CF910895CF93C3E00E94B1003B
:10047000813361F40E94B20544EA51E060E080E01B
:100480000E94B5050E944501C1E00CC00E94B20562
:1004900043EB51E060E080E00E94B5050E94450119
:1004A000C15021F78C2FCF910895CF93DF9382E332
:1004B0000E94B4060E94B20541EC51E060E080E089
:1004C0000E94B5050E94FF000E94B20543ED51E075
:1004D00060E080E00E94B50541EE51E068E081E017
:1004E0000E94B505C3E0D0E0219750F00E9445017D
:1004F00068E081E00E948105CE010E949405F4CF5E
:100500000E94B20543EE51E060E080E00E94B50534
:10051000DF91CF910C94FF00CF930E94B20545EF7D
:1005200051E060E080E00E94B50544E052E060E008
:1005300081E00E94B5050E94A903C82F8B3211F0FB
:100540008D32C9F70E943402811103C0CF910C94FF
:100550002C01CB3219F4CF910C945502CF910C940D
:100560007201843008F061C0683008F05EC08230EB
:1005700089F1833009F444C08130B1F04130510534
:1005800041F48AB301C0440F6A95EAF7482B4ABB8D
:1005900008952AB381E090E001C0880F6A95EAF7D8
:1005A000809582238ABB08954130510541F487B379
:1005B00001C0440F6A95EAF7482B47BB089527B35B
:1005C00081E090E001C0880F6A95EAF78095822368
:1005D00087BB08954130510541F484B301C0440FF5
:1005E0006A95EAF7482B44BB089524B381E090E074
:1005F00001C0880F6A95EAF78095822384BB08952D
:100600004130510541F481B301C0440F6A95EAF7C6
:10061000482B41BB089521B381E090E001C0880FD1
:100620006A95EAF78095822381BB0895843058F457
:10063000823031F0833031F0813011F467BB08959E
:100640006ABB089561BB0895843008F044C06830E7
:1006500008F041C0823011F1833079F1813079F0B6
:100660002BB381E090E001C0880F6A95EAF7413032
:1006700011F4822B02C0809582238BBB089528B38E
:1006800081E090E001C0880F6A95EAF7413011F4EB
:10069000822B02C08095822388BB089525B381E018
:1006A00090E001C0880F6A95EAF7413011F4822B7F
:1006B00002C08095822385BB089522B381E090E03B
:1006C00001C0880F6A95EAF7413011F4822B02C00D
:1006D0008095822382BB0895843068F4823041F093
:1006E000833041F0813011F06BBB089568BB0895F1
:1006F00065BB089562BB08958430B8F46830A8F4EF
:10070000823041F0833079F0813011F089B303C039
:1007100086B301C083B390E002C0959587956A9532
:10072000E2F78170089580B3F6CF80E008958430B9
:1007300070F4823041F0833041F0813011F089B3A0
:10074000089586B3089583B3089580B3089580E033
:1007500008951F93CF93DF9340E050E064E081E081
:100760000E94B10240E050E065E081E00E94B102E9
:1007700040E050E066E081E00E94B10240E050E0DD
:1007800067E081E00E94B10240E050E062E083E077
:100790000E94B10240E050E063E083E00E94B102B9
:1007A00040E050E064E083E00E94B10240E050E0AD
:1007B00065E083E00E94B102D0E014E01D0F41E04B
:1007C00050E0612F81E00E94B10240E0612F81E0A2
:1007D0000E942403C0E062E06C0F83E00E947C036F
:1007E000CF5F81112DC08D2F880F880F8C0F482F60
:1007F00050E0FA013297EF30F10520F4EC5CFF4F46
:100800000C94110787E02FC089E02DC08FE22BC028
:1008100084E029C085E027C086E025C08AE223C0A5
:1008200081E021C082E01FC083E01DC08DE21BC0BB
:1008300080E019C08DE317C08BE215C088E013C0BB
:10084000C43049F640E050E0612F81E00E94B102DF
:100850008FE097E20197F1F700C00000DF5FD4302E
:1008600009F0ABCFA9CFDF91CF911F910895CF931E
:10087000C82F40E061E080E00E9424038FEC97E005
:100880000197F1F700C0000041E062E080E00E94C3
:1008900024038FEC97E00197F1F700C00000C4FB40
:1008A000442740F963E080E00E942403C5FB44270D
:1008B00040F964E080E00E942403C6FB442740F92D
:1008C00065E080E00E9424034C2F441F4427441F0E
:1008D00066E080E00E9424038FEC97E00197F1F737
:1008E00000C0000040E062E080E00E9424038FEC42
:1008F00097E00197F1F700C0000041E062E080E07E
:100900000E9424038FEC97E00197F1F700C00000EC
:100910004C2F417063E080E00E942403C1FB442718
:1009200040F964E080E00E942403C2FB442740F9C0
:1009300065E080E00E942403C3FB442740F966E0A1
:1009400080E00E9424038FEC97E00197F1F700C04C
:10095000000040E062E080E00E9424038FEC97E01A
:100960000197F1F700C00000CF91089541E050E0F9
:1009700061E080E00E94B10241E050E062E080E08E
:100980000E94B1028FE39CE90197F1F700C00000DB
:1009900041E050E063E080E00E94B10241E050E0BD
:1009A00064E080E00E94B10241E050E065E080E058
:1009B0000E94B10241E050E066E080E00E94B10296
:1009C00083E30E94370482E30E94370488E20E9496
:1009D00037048CE00E94370481E00C943704CF93F5
:1009E000C82F41E061E080E00E9424038FEC97E093
:1009F0000197F1F700C0000041E062E080E00E9452
:100A000024038FEC97E00197F1F700C00000C4FBCE
:100A1000442740F963E080E00E942403C5FB44279B
:100A200040F964E080E00E942403C6FB442740F9BB
:100A300065E080E00E9424034C2F441F4427441F9C
:100A400066E080E00E9424038FEC97E00197F1F7C5
:100A500000C0000040E062E080E00E9424038FECD0
:100A600097E00197F1F700C0000041E062E080E00C
:100A70000E9424038FEC97E00197F1F700C000007B
:100A80004C2F417063E080E00E942403C1FB4427A7
:100A900040F964E080E00E942403C2FB442740F94F
:100AA00065E080E00E942403C3FB442740F966E030
:100AB00080E00E9424038FEC97E00197F1F700C0DB
:100AC000000040E062E080E00E9424038FEC97E0A9
:100AD0000197F1F700C00000CF9108950F931F9385
:100AE000CF938C01C0E0F801EC0FF11D80818823C9
:100AF00021F00E94EF04CF5FF6CFCF911F910F91AD
:100B00000895813049F030F0823041F0833041F473
:100B100090E505C0962F04C090E401C090E1960FC7
:100B2000892F80680C943704CF93DF93CDB7DEB75D
:100B300060970FB6F894DEBF0FBECDBF4AE050E01D
:100B4000BE016F5F7F4F0E941707CE0101960E9482
:100B50006E0560960FB6F894DEBF0FBECDBFDF9175
:100B6000CF91089581E00C943704CF93DF93EA018D
:100B70000E948105CE01DF91CF910C946E051F92EA
:100B80000F920FB60F9211242F933F934F935F93C1
:100B90006F937F938F939F93AF93BF93EF93FF9345
:100BA000E0911A02F0911B020995FF91EF91BF911C
:100BB000AF919F918F917F916F915F914F913F91F5
:100BC0002F910F900FBE0F901F9018951F920F92AC
:100BD0000FB60F9211242F933F934F935F936F9310
:100BE0007F938F939F93AF93BF93EF93FF93E09186
:100BF0001C02F0911D020995FF91EF91BF91AF91F9
:100C00009F918F917F916F915F914F913F912F9124
:100C10000F900FBE0F901F9018951F920F920FB656
:100C20000F9211242F933F934F935F936F937F9372
:100C30008F939F93AF93BF93EF93FF93E0911E0227
:100C4000F0911F020995FF91EF91BF91AF919F9194
:100C50008F917F916F915F914F913F912F910F9065
:100C60000FBE0F901F9018951F920F920FB60F9204
:100C700011242F933F934F935F936F937F938F93A1
:100C80009F93AF93BF93EF93FF93E0912002F09176
:100C900021020995FF91EF91BF91AF919F918F91A3
:100CA0007F916F915F914F913F912F910F900FBE68
:100CB0000F901F901895FC01808191819093850081
:100CC000809384008281938190938900809388002F
:100CD00080E8809380008681880F880F880F948138
:100CE000892B8093810089B7826089BF89B7816031
:100CF00089BF8FB780688FBF0895109281000895D3
:100D0000E62FF0E0EE0FFF1FE65EFD4F918380833C
:100D10000895FC0182E08BB988E18AB99081892F1E
:100D2000880F92819295907F982B90682481220F52
:100D3000220F220F922B90BD86819781A085B185CD
:100D40009C01AD0183E0220F331F441F551F8A957C
:100D5000D1F760E072E18AE790E00E94EF0621504F
:100D6000310930BD29B908955D9BFECF8CB9089536
:100D70005F9BFECF8CB10895CF93DF93EC018991F7
:100D8000882319F00E94B406FACFDF91CF910C941A
:100D9000B406EF92FF920F931F93CF938C010E94A2
:100DA000B806F8018083C0E0F801EC0FF11D8081E6
:100DB000882349F0CF5F7801EC0EF11C0E94B80641
:100DC000F7018083F1CFCF911F910F91FF90EF90AA
:100DD000089508950E940D020E948C02FDCFA1E2A9
:100DE0001A2EAA1BBB1BFD010DC0AA1FBB1FEE1FA5
:100DF000FF1FA217B307E407F50720F0A21BB30BF0
:100E0000E40BF50B661F771F881F991F1A9469F76B
:100E100060957095809590959B01AC01BD01CF01C7
:100E20000895EE0FFF1F0590F491E02D09944532CF
:100E3000510520F4423010F00C942207FB0110827F
:100E4000CB010895BB274A3031F4992322F4BDE247
:100E5000909581959F4F0C942E07BB27FB0155273A
:100E6000AA27880F991FAA1FA41710F0A41B839507
:100E70005051B9F7A05DAA3308F0A95DA19300977E
:100E800079F7B111B1931192CB010C944707DC01B2
:100E9000FC01672F71917723E1F7329704C07C91B1
:100EA0006D9370836291AE17BF07C8F30895F894ED
:020EB000FFCF72
:100EB2000000E2E4050001000000851E05000100BB
:100EC20003000000000080250000506C7A20656E4F
:100ED20074657220706173733A004D415820545208
:100EE20049414C5320555345440053595354454DA1
:100EF200204953204C4F434B454400506C7A2065A7
:100F02006E74657220706173733A2000506C7A209F
:100F120072652D656E746572207468650073616D0B
:100F22006520706173733A20004572726F722121DD
:100F320020004E4F54204D415443484544005061D7
:100F42007373207365740053756363657373667599
:100F52006C6C7900414343455353204752414E54F0
:100F62004544004143434553532044454E4945447B
:100F720000446F6F7220697320556E6C6F636B69EA
:100F82006E6700446F6F72206C6F636B7320696EC3
:100F9200003300446F6F72206973206C6F636B695A
:100FA2006E67202000202B203A204F70656E20446F
:100FB2006F6F7200202D203A204368616E676520B2
:060FC20050617373000092
:00000001FF
